{
  "abi": [
    {
      "inputs": [
        {
          "internalType": "address",
          "name": "_feed",
          "type": "address"
        }
      ],
      "stateMutability": "nonpayable",
      "type": "constructor"
    },
    {
      "inputs": [],
      "name": "ApprovalCallerNotOwnerNorApproved",
      "type": "error"
    },
    {
      "inputs": [],
      "name": "ApprovalQueryForNonexistentToken",
      "type": "error"
    },
    {
      "inputs": [],
      "name": "BalanceQueryForZeroAddress",
      "type": "error"
    },
    {
      "inputs": [],
      "name": "InvalidQueryRange",
      "type": "error"
    },
    {
      "inputs": [],
      "name": "MintERC2309QuantityExceedsLimit",
      "type": "error"
    },
    {
      "inputs": [],
      "name": "MintToZeroAddress",
      "type": "error"
    },
    {
      "inputs": [],
      "name": "MintZeroQuantity",
      "type": "error"
    },
    {
      "inputs": [],
      "name": "OwnerQueryForNonexistentToken",
      "type": "error"
    },
    {
      "inputs": [],
      "name": "OwnershipNotInitializedForExtraData",
      "type": "error"
    },
    {
      "inputs": [],
      "name": "TransferCallerNotOwnerNorApproved",
      "type": "error"
    },
    {
      "inputs": [],
      "name": "TransferFromIncorrectOwner",
      "type": "error"
    },
    {
      "inputs": [],
      "name": "TransferToNonERC721ReceiverImplementer",
      "type": "error"
    },
    {
      "inputs": [],
      "name": "TransferToZeroAddress",
      "type": "error"
    },
    {
      "inputs": [],
      "name": "URIQueryForNonexistentToken",
      "type": "error"
    },
    {
      "anonymous": false,
      "inputs": [
        {
          "indexed": true,
          "internalType": "address",
          "name": "owner",
          "type": "address"
        },
        {
          "indexed": true,
          "internalType": "address",
          "name": "approved",
          "type": "address"
        },
        {
          "indexed": true,
          "internalType": "uint256",
          "name": "tokenId",
          "type": "uint256"
        }
      ],
      "name": "Approval",
      "type": "event"
    },
    {
      "anonymous": false,
      "inputs": [
        {
          "indexed": true,
          "internalType": "address",
          "name": "owner",
          "type": "address"
        },
        {
          "indexed": true,
          "internalType": "address",
          "name": "operator",
          "type": "address"
        },
        {
          "indexed": false,
          "internalType": "bool",
          "name": "approved",
          "type": "bool"
        }
      ],
      "name": "ApprovalForAll",
      "type": "event"
    },
    {
      "anonymous": false,
      "inputs": [
        {
          "indexed": true,
          "internalType": "uint256",
          "name": "fromTokenId",
          "type": "uint256"
        },
        {
          "indexed": false,
          "internalType": "uint256",
          "name": "toTokenId",
          "type": "uint256"
        },
        {
          "indexed": true,
          "internalType": "address",
          "name": "from",
          "type": "address"
        },
        {
          "indexed": true,
          "internalType": "address",
          "name": "to",
          "type": "address"
        }
      ],
      "name": "ConsecutiveTransfer",
      "type": "event"
    },
    {
      "anonymous": false,
      "inputs": [
        {
          "indexed": true,
          "internalType": "address",
          "name": "previousOwner",
          "type": "address"
        },
        {
          "indexed": true,
          "internalType": "address",
          "name": "newOwner",
          "type": "address"
        }
      ],
      "name": "OwnershipTransferStarted",
      "type": "event"
    },
    {
      "anonymous": false,
      "inputs": [
        {
          "indexed": true,
          "internalType": "address",
          "name": "previousOwner",
          "type": "address"
        },
        {
          "indexed": true,
          "internalType": "address",
          "name": "newOwner",
          "type": "address"
        }
      ],
      "name": "OwnershipTransferred",
      "type": "event"
    },
    {
      "anonymous": false,
      "inputs": [
        {
          "indexed": true,
          "internalType": "address",
          "name": "from",
          "type": "address"
        },
        {
          "indexed": true,
          "internalType": "address",
          "name": "to",
          "type": "address"
        },
        {
          "indexed": true,
          "internalType": "uint256",
          "name": "tokenId",
          "type": "uint256"
        }
      ],
      "name": "Transfer",
      "type": "event"
    },
    {
      "inputs": [],
      "name": "_usdPrice",
      "outputs": [
        {
          "internalType": "uint256",
          "name": "",
          "type": "uint256"
        }
      ],
      "stateMutability": "view",
      "type": "function"
    },
    {
      "inputs": [],
      "name": "acceptOwnership",
      "outputs": [],
      "stateMutability": "nonpayable",
      "type": "function"
    },
    {
      "inputs": [
        {
          "internalType": "address",
          "name": "to",
          "type": "address"
        },
        {
          "internalType": "uint256",
          "name": "tokenId",
          "type": "uint256"
        }
      ],
      "name": "approve",
      "outputs": [],
      "stateMutability": "payable",
      "type": "function"
    },
    {
      "inputs": [
        {
          "internalType": "address",
          "name": "owner",
          "type": "address"
        }
      ],
      "name": "balanceOf",
      "outputs": [
        {
          "internalType": "uint256",
          "name": "",
          "type": "uint256"
        }
      ],
      "stateMutability": "view",
      "type": "function"
    },
    {
      "inputs": [],
      "name": "disablePublicMinting",
      "outputs": [],
      "stateMutability": "nonpayable",
      "type": "function"
    },
    {
      "inputs": [],
      "name": "distribute",
      "outputs": [],
      "stateMutability": "nonpayable",
      "type": "function"
    },
    {
      "inputs": [],
      "name": "enablePublicMinting",
      "outputs": [],
      "stateMutability": "nonpayable",
      "type": "function"
    },
    {
      "inputs": [
        {
          "internalType": "uint256",
          "name": "tokenId",
          "type": "uint256"
        }
      ],
      "name": "explicitOwnershipOf",
      "outputs": [
        {
          "components": [
            {
              "internalType": "address",
              "name": "addr",
              "type": "address"
            },
            {
              "internalType": "uint64",
              "name": "startTimestamp",
              "type": "uint64"
            },
            {
              "internalType": "bool",
              "name": "burned",
              "type": "bool"
            },
            {
              "internalType": "uint24",
              "name": "extraData",
              "type": "uint24"
            }
          ],
          "internalType": "struct IERC721A.TokenOwnership",
          "name": "",
          "type": "tuple"
        }
      ],
      "stateMutability": "view",
      "type": "function"
    },
    {
      "inputs": [
        {
          "internalType": "uint256[]",
          "name": "tokenIds",
          "type": "uint256[]"
        }
      ],
      "name": "explicitOwnershipsOf",
      "outputs": [
        {
          "components": [
            {
              "internalType": "address",
              "name": "addr",
              "type": "address"
            },
            {
              "internalType": "uint64",
              "name": "startTimestamp",
              "type": "uint64"
            },
            {
              "internalType": "bool",
              "name": "burned",
              "type": "bool"
            },
            {
              "internalType": "uint24",
              "name": "extraData",
              "type": "uint24"
            }
          ],
          "internalType": "struct IERC721A.TokenOwnership[]",
          "name": "",
          "type": "tuple[]"
        }
      ],
      "stateMutability": "view",
      "type": "function"
    },
    {
      "inputs": [
        {
          "internalType": "uint256",
          "name": "tokenId",
          "type": "uint256"
        }
      ],
      "name": "getApproved",
      "outputs": [
        {
          "internalType": "address",
          "name": "",
          "type": "address"
        }
      ],
      "stateMutability": "view",
      "type": "function"
    },
    {
      "inputs": [
        {
          "internalType": "address",
          "name": "owner",
          "type": "address"
        }
      ],
      "name": "getAux",
      "outputs": [
        {
          "internalType": "uint64",
          "name": "",
          "type": "uint64"
        }
      ],
      "stateMutability": "view",
      "type": "function"
    },
    {
      "inputs": [],
      "name": "getCurrentPrice",
      "outputs": [
        {
          "internalType": "uint256",
          "name": "",
          "type": "uint256"
        }
      ],
      "stateMutability": "view",
      "type": "function"
    },
    {
      "inputs": [
        {
          "internalType": "address",
          "name": "owner",
          "type": "address"
        },
        {
          "internalType": "address",
          "name": "operator",
          "type": "address"
        }
      ],
      "name": "isApprovedForAll",
      "outputs": [
        {
          "internalType": "bool",
          "name": "",
          "type": "bool"
        }
      ],
      "stateMutability": "view",
      "type": "function"
    },
    {
      "inputs": [],
      "name": "name",
      "outputs": [
        {
          "internalType": "string",
          "name": "",
          "type": "string"
        }
      ],
      "stateMutability": "view",
      "type": "function"
    },
    {
      "inputs": [],
      "name": "offchain",
      "outputs": [
        {
          "internalType": "address",
          "name": "",
          "type": "address"
        }
      ],
      "stateMutability": "view",
      "type": "function"
    },
    {
      "inputs": [],
      "name": "onchain",
      "outputs": [
        {
          "internalType": "address",
          "name": "",
          "type": "address"
        }
      ],
      "stateMutability": "view",
      "type": "function"
    },
    {
      "inputs": [],
      "name": "owner",
      "outputs": [
        {
          "internalType": "address",
          "name": "",
          "type": "address"
        }
      ],
      "stateMutability": "view",
      "type": "function"
    },
    {
      "inputs": [
        {
          "internalType": "address",
          "name": "to",
          "type": "address"
        },
        {
          "internalType": "uint256",
          "name": "quantity",
          "type": "uint256"
        }
      ],
      "name": "ownerMint",
      "outputs": [],
      "stateMutability": "nonpayable",
      "type": "function"
    },
    {
      "inputs": [
        {
          "internalType": "uint256",
          "name": "tokenId",
          "type": "uint256"
        }
      ],
      "name": "ownerOf",
      "outputs": [
        {
          "internalType": "address",
          "name": "",
          "type": "address"
        }
      ],
      "stateMutability": "view",
      "type": "function"
    },
    {
      "inputs": [],
      "name": "pendingOwner",
      "outputs": [
        {
          "internalType": "address",
          "name": "",
          "type": "address"
        }
      ],
      "stateMutability": "view",
      "type": "function"
    },
    {
      "inputs": [
        {
          "internalType": "uint256",
          "name": "_amount",
          "type": "uint256"
        }
      ],
      "name": "presale",
      "outputs": [],
      "stateMutability": "payable",
      "type": "function"
    },
    {
      "inputs": [
        {
          "internalType": "uint256",
          "name": "_amount",
          "type": "uint256"
        }
      ],
      "name": "publicMint",
      "outputs": [],
      "stateMutability": "payable",
      "type": "function"
    },
    {
      "inputs": [],
      "name": "publicMintingEnabled",
      "outputs": [
        {
          "internalType": "bool",
          "name": "",
          "type": "bool"
        }
      ],
      "stateMutability": "view",
      "type": "function"
    },
    {
      "inputs": [],
      "name": "renounceOwnership",
      "outputs": [],
      "stateMutability": "pure",
      "type": "function"
    },
    {
      "inputs": [
        {
          "internalType": "uint256",
          "name": "_tokenId",
          "type": "uint256"
        },
        {
          "internalType": "uint256",
          "name": "_salePrice",
          "type": "uint256"
        }
      ],
      "name": "royaltyInfo",
      "outputs": [
        {
          "internalType": "address",
          "name": "",
          "type": "address"
        },
        {
          "internalType": "uint256",
          "name": "",
          "type": "uint256"
        }
      ],
      "stateMutability": "view",
      "type": "function"
    },
    {
      "inputs": [
        {
          "internalType": "address",
          "name": "from",
          "type": "address"
        },
        {
          "internalType": "address",
          "name": "to",
          "type": "address"
        },
        {
          "internalType": "uint256",
          "name": "tokenId",
          "type": "uint256"
        }
      ],
      "name": "safeTransferFrom",
      "outputs": [],
      "stateMutability": "payable",
      "type": "function"
    },
    {
      "inputs": [
        {
          "internalType": "address",
          "name": "from",
          "type": "address"
        },
        {
          "internalType": "address",
          "name": "to",
          "type": "address"
        },
        {
          "internalType": "uint256",
          "name": "tokenId",
          "type": "uint256"
        },
        {
          "internalType": "bytes",
          "name": "_data",
          "type": "bytes"
        }
      ],
      "name": "safeTransferFrom",
      "outputs": [],
      "stateMutability": "payable",
      "type": "function"
    },
    {
      "inputs": [
        {
          "internalType": "address",
          "name": "operator",
          "type": "address"
        },
        {
          "internalType": "bool",
          "name": "approved",
          "type": "bool"
        }
      ],
      "name": "setApprovalForAll",
      "outputs": [],
      "stateMutability": "nonpayable",
      "type": "function"
    },
    {
      "inputs": [
        {
          "internalType": "address",
          "name": "owner",
          "type": "address"
        },
        {
          "internalType": "uint64",
          "name": "aux",
          "type": "uint64"
        }
      ],
      "name": "setAux",
      "outputs": [],
      "stateMutability": "nonpayable",
      "type": "function"
    },
    {
      "inputs": [
        {
          "internalType": "string",
          "name": "newURI",
          "type": "string"
        }
      ],
      "name": "setBaseURI",
      "outputs": [],
      "stateMutability": "nonpayable",
      "type": "function"
    },
    {
      "inputs": [
        {
          "internalType": "address",
          "name": "_newOffchainWallet",
          "type": "address"
        }
      ],
      "name": "setOffchainWallet",
      "outputs": [],
      "stateMutability": "nonpayable",
      "type": "function"
    },
    {
      "inputs": [
        {
          "internalType": "address",
          "name": "_newOnchainWallet",
          "type": "address"
        }
      ],
      "name": "setOnchainWallet",
      "outputs": [],
      "stateMutability": "nonpayable",
      "type": "function"
    },
    {
      "inputs": [
        {
          "internalType": "string",
          "name": "newExtention",
          "type": "string"
        }
      ],
      "name": "setURIExtention",
      "outputs": [],
      "stateMutability": "nonpayable",
      "type": "function"
    },
    {
      "inputs": [
        {
          "internalType": "uint256",
          "name": "_newPrice",
          "type": "uint256"
        }
      ],
      "name": "setUSDPrice",
      "outputs": [],
      "stateMutability": "nonpayable",
      "type": "function"
    },
    {
      "inputs": [
        {
          "internalType": "bytes4",
          "name": "interfaceId",
          "type": "bytes4"
        }
      ],
      "name": "supportsInterface",
      "outputs": [
        {
          "internalType": "bool",
          "name": "",
          "type": "bool"
        }
      ],
      "stateMutability": "view",
      "type": "function"
    },
    {
      "inputs": [],
      "name": "symbol",
      "outputs": [
        {
          "internalType": "string",
          "name": "",
          "type": "string"
        }
      ],
      "stateMutability": "view",
      "type": "function"
    },
    {
      "inputs": [
        {
          "internalType": "uint256",
          "name": "tokenId",
          "type": "uint256"
        }
      ],
      "name": "tokenURI",
      "outputs": [
        {
          "internalType": "string",
          "name": "",
          "type": "string"
        }
      ],
      "stateMutability": "view",
      "type": "function"
    },
    {
      "inputs": [
        {
          "internalType": "address",
          "name": "owner",
          "type": "address"
        }
      ],
      "name": "tokensOfOwner",
      "outputs": [
        {
          "internalType": "uint256[]",
          "name": "",
          "type": "uint256[]"
        }
      ],
      "stateMutability": "view",
      "type": "function"
    },
    {
      "inputs": [
        {
          "internalType": "address",
          "name": "owner",
          "type": "address"
        },
        {
          "internalType": "uint256",
          "name": "start",
          "type": "uint256"
        },
        {
          "internalType": "uint256",
          "name": "stop",
          "type": "uint256"
        }
      ],
      "name": "tokensOfOwnerIn",
      "outputs": [
        {
          "internalType": "uint256[]",
          "name": "",
          "type": "uint256[]"
        }
      ],
      "stateMutability": "view",
      "type": "function"
    },
    {
      "inputs": [],
      "name": "totalSupply",
      "outputs": [
        {
          "internalType": "uint256",
          "name": "",
          "type": "uint256"
        }
      ],
      "stateMutability": "view",
      "type": "function"
    },
    {
      "inputs": [
        {
          "internalType": "address",
          "name": "from",
          "type": "address"
        },
        {
          "internalType": "address",
          "name": "to",
          "type": "address"
        },
        {
          "internalType": "uint256",
          "name": "tokenId",
          "type": "uint256"
        }
      ],
      "name": "transferFrom",
      "outputs": [],
      "stateMutability": "payable",
      "type": "function"
    },
    {
      "inputs": [
        {
          "internalType": "address",
          "name": "newOwner",
          "type": "address"
        }
      ],
      "name": "transferOwnership",
      "outputs": [],
      "stateMutability": "nonpayable",
      "type": "function"
    }
  ],
  "bytecode": {
    "object": "0x600f80547440b7c8af15751978fb12d7846dad818e05fdf7c2006001600160a81b0319909116179055601080546001600160a01b031916735fdc5579d7172f942aea80b7bac5ab624c2e78a417905560e0604052600460a09081526375726c2f60e01b60c052601190620000749082620003ff565b50604080518082019091526005815264173539b7b760d91b6020820152601290620000a09082620003ff565b50348015620000ae57600080fd5b5060405162003d9c38038062003d9c833981016040819052620000d191620004cb565b604051806040016040528060068152602001655241464f534560d01b8152506040518060400160405280600381526020016252465360e81b81525081600390816200011d9190620003ff565b5060046200012c8282620003ff565b505060018055506200013e33620001e5565b6001600d556001600160a01b03811660808190526040805163313ce56760e01b8152905163313ce567916004808201926020929091908290030181865afa1580156200018e573d6000803e3d6000fd5b505050506040513d601f19601f82011682018060405250810190620001b49190620004fd565b620001c190600a62000637565b620001ce9060fa62000648565b600e55620001de3360fa62000203565b5062000662565b600a80546001600160a01b0319169055620002008162000308565b50565b6127106001600160601b0382161115620002775760405162461bcd60e51b815260206004820152602a60248201527f455243323938313a20726f79616c7479206665652077696c6c206578636565646044820152692073616c65507269636560b01b60648201526084015b60405180910390fd5b6001600160a01b038216620002cf5760405162461bcd60e51b815260206004820152601960248201527f455243323938313a20696e76616c69642072656365697665720000000000000060448201526064016200026e565b604080518082019091526001600160a01b039092168083526001600160601b039091166020909201829052600160a01b90910217600b55565b600980546001600160a01b038381166001600160a01b0319831681179093556040519116919082907f8be0079c531659141344cd1fd0a4f28419497f9722a3daafe3b4186f6b6457e090600090a35050565b634e487b7160e01b600052604160045260246000fd5b600181811c908216806200038557607f821691505b602082108103620003a657634e487b7160e01b600052602260045260246000fd5b50919050565b601f821115620003fa57600081815260208120601f850160051c81016020861015620003d55750805b601f850160051c820191505b81811015620003f657828155600101620003e1565b5050505b505050565b81516001600160401b038111156200041b576200041b6200035a565b62000433816200042c845462000370565b84620003ac565b602080601f8311600181146200046b5760008415620004525750858301515b600019600386901b1c1916600185901b178555620003f6565b600085815260208120601f198616915b828110156200049c578886015182559484019460019091019084016200047b565b5085821015620004bb5787850151600019600388901b60f8161c191681555b5050505050600190811b01905550565b600060208284031215620004de57600080fd5b81516001600160a01b0381168114620004f657600080fd5b9392505050565b6000602082840312156200051057600080fd5b815160ff81168114620004f657600080fd5b634e487b7160e01b600052601160045260246000fd5b600181815b80851115620005795781600019048211156200055d576200055d62000522565b808516156200056b57918102915b93841c93908002906200053d565b509250929050565b600082620005925750600162000631565b81620005a15750600062000631565b8160018114620005ba5760028114620005c557620005e5565b600191505062000631565b60ff841115620005d957620005d962000522565b50506001821b62000631565b5060208310610133831016604e8410600b84101617156200060a575081810a62000631565b62000616838362000538565b80600019048211156200062d576200062d62000522565b0290505b92915050565b6000620004f660ff84168362000581565b808202811582820484141762000631576200063162000522565b6080516137106200068c60003960008181611e1401528181611fb1015261206d01526137106000f3fe6080604052600436106102d15760003560e01c806379ba509711610179578063b88d4fde116100d6578063e4fc6b6d1161008a578063eb91d37e11610064578063eb91d37e1461085b578063f2fde38b14610870578063f7beb98a1461089057600080fd5b8063e4fc6b6d146107dd578063e6ab1434146107f2578063e985e9c51461080557600080fd5b8063c23dc68f116100bb578063c23dc68f14610765578063c87b56dd14610792578063e30c3978146107b257600080fd5b8063b88d4fde14610719578063bf0b175e1461072c57600080fd5b806395d89b411161012d578063a22cb46511610112578063a22cb465146106a7578063a6b2c090146106c7578063acdae899146106e757600080fd5b806395d89b411461067257806399a2557a1461068757600080fd5b80638da5cb5b1161015e5780638da5cb5b146106185780638dec9f7a146106435780639190ad471461065d57600080fd5b806379ba5097146105d65780638462151c146105eb57600080fd5b80632db115441161023257806355f804b3116101e657806370a08231116101c057806370a0823114610581578063715018a6146105a157806377fd08c5146105b657600080fd5b806355f804b3146105145780635bbb2177146105345780636352211e1461056157600080fd5b80634408a046116102175780634408a046146104b4578063453ab141146104d4578063484b973c146104f457600080fd5b80632db115441461048e57806342842e0e146104a157600080fd5b8063147d959a116102895780631a16aacd1161026e5780631a16aacd1461041957806323b872dd1461042f5780632a55205a1461044257600080fd5b8063147d959a146103b457806318160ddd146103d457600080fd5b806306fdde03116102ba57806306fdde031461035d578063081812fc1461037f578063095ea7b31461039f57600080fd5b806301ffc9a7146102d65780630251acae1461030b575b600080fd5b3480156102e257600080fd5b506102f66102f1366004612cef565b6108a5565b60405190151581526020015b60405180910390f35b34801561031757600080fd5b506010546103389073ffffffffffffffffffffffffffffffffffffffff1681565b60405173ffffffffffffffffffffffffffffffffffffffff9091168152602001610302565b34801561036957600080fd5b50610372610a31565b6040516103029190612d7a565b34801561038b57600080fd5b5061033861039a366004612d8d565b610ac3565b6103b26103ad366004612dcf565b610b2d565b005b3480156103c057600080fd5b506103b26103cf366004612d8d565b600e55565b3480156103e057600080fd5b50600254600154037fffffffffffffffffffffffffffffffffffffffffffffffffffffffffffffffff015b604051908152602001610302565b34801561042557600080fd5b5061040b600e5481565b6103b261043d366004612df9565b610c18565b34801561044e57600080fd5b5061046261045d366004612e35565b610ea8565b6040805173ffffffffffffffffffffffffffffffffffffffff9093168352602083019190915201610302565b6103b261049c366004612d8d565b610f9f565b6103b26104af366004612df9565b61122e565b3480156104c057600080fd5b506103b26104cf366004612e57565b61124e565b3480156104e057600080fd5b506103b26104ef366004612ec9565b611263565b34801561050057600080fd5b506103b261050f366004612dcf565b6112be565b34801561052057600080fd5b506103b261052f366004612e57565b6112d0565b34801561054057600080fd5b5061055461054f366004612f0d565b6112e5565b6040516103029190612f70565b34801561056d57600080fd5b5061033861057c366004612d8d565b6113cf565b34801561058d57600080fd5b5061040b61059c366004612ffa565b6113da565b3480156105ad57600080fd5b506103b261145c565b3480156105c257600080fd5b506103b26105d1366004612ffa565b6114c0565b3480156105e257600080fd5b506103b261150f565b3480156105f757600080fd5b5061060b610606366004612ffa565b6115c1565b6040516103029190613015565b34801561062457600080fd5b5060095473ffffffffffffffffffffffffffffffffffffffff16610338565b34801561064f57600080fd5b50600f546102f69060ff1681565b34801561066957600080fd5b506103b26116ec565b34801561067e57600080fd5b5061037261171e565b34801561069357600080fd5b5061060b6106a236600461304d565b61172d565b3480156106b357600080fd5b506103b26106c2366004613080565b6118f5565b3480156106d357600080fd5b506103b26106e2366004612ffa565b61198c565b3480156106f357600080fd5b50600f5461033890610100900473ffffffffffffffffffffffffffffffffffffffff1681565b6103b26107273660046130e0565b6119e0565b34801561073857600080fd5b5061074c610747366004612ffa565b611a50565b60405167ffffffffffffffff9091168152602001610302565b34801561077157600080fd5b50610785610780366004612d8d565b611a7e565b60405161030291906131da565b34801561079e57600080fd5b506103726107ad366004612d8d565b611b06565b3480156107be57600080fd5b50600a5473ffffffffffffffffffffffffffffffffffffffff16610338565b3480156107e957600080fd5b506103b2611ba5565b6103b2610800366004612d8d565b611bb5565b34801561081157600080fd5b506102f661082036600461322c565b73ffffffffffffffffffffffffffffffffffffffff918216600090815260086020908152604080832093909416825291909152205460ff1690565b34801561086757600080fd5b5061040b611e0d565b34801561087c57600080fd5b506103b261088b366004612ffa565b61211e565b34801561089c57600080fd5b506103b26121ce565b60007fffffffff0000000000000000000000000000000000000000000000000000000082167f8446a79e00000000000000000000000000000000000000000000000000000000148061093857507fffffffff0000000000000000000000000000000000000000000000000000000082167fc21b8f2800000000000000000000000000000000000000000000000000000000145b8061098457507fffffffff0000000000000000000000000000000000000000000000000000000082167f36372b0700000000000000000000000000000000000000000000000000000000145b806109d057507fffffffff0000000000000000000000000000000000000000000000000000000082167f2baae9fd00000000000000000000000000000000000000000000000000000000145b80610a1c57507fffffffff0000000000000000000000000000000000000000000000000000000082167f01ffc9a700000000000000000000000000000000000000000000000000000000145b80610a2b5750610a2b82612203565b92915050565b606060038054610a409061325f565b80601f0160208091040260200160405190810160405280929190818152602001828054610a6c9061325f565b8015610ab95780601f10610a8e57610100808354040283529160200191610ab9565b820191906000526020600020905b815481529060010190602001808311610a9c57829003601f168201915b5050505050905090565b6000610ace82612259565b610b04576040517fcf4700e400000000000000000000000000000000000000000000000000000000815260040160405180910390fd5b5060009081526007602052604090205473ffffffffffffffffffffffffffffffffffffffff1690565b6000610b38826113cf565b90503373ffffffffffffffffffffffffffffffffffffffff821614610b9757610b618133610820565b610b97576040517fcfb3b94200000000000000000000000000000000000000000000000000000000815260040160405180910390fd5b60008281526007602052604080822080547fffffffffffffffffffffffff00000000000000000000000000000000000000001673ffffffffffffffffffffffffffffffffffffffff87811691821790925591518593918516917f8c5be1e5ebec7d5bd14f71427d1e84f3dd0314c0f7b2291e5b200ac8c7c3b92591a4505050565b6000610c23826122a7565b90508373ffffffffffffffffffffffffffffffffffffffff168173ffffffffffffffffffffffffffffffffffffffff1614610c8a576040517fa114810000000000000000000000000000000000000000000000000000000000815260040160405180910390fd5b600082815260076020526040902080543380821473ffffffffffffffffffffffffffffffffffffffff881690911417610cfd57610cc78633610820565b610cfd576040517f59c896be00000000000000000000000000000000000000000000000000000000815260040160405180910390fd5b73ffffffffffffffffffffffffffffffffffffffff8516610d4a576040517fea553b3400000000000000000000000000000000000000000000000000000000815260040160405180910390fd5b8015610d5557600082555b73ffffffffffffffffffffffffffffffffffffffff86811660009081526006602052604080822080547fffffffffffffffffffffffffffffffffffffffffffffffffffffffffffffffff019055918716808252919020805460010190554260a01b177c0200000000000000000000000000000000000000000000000000000000176000858152600560205260408120919091557c020000000000000000000000000000000000000000000000000000000084169003610e4457600184016000818152600560205260408120549003610e42576001548114610e425760008181526005602052604090208490555b505b838573ffffffffffffffffffffffffffffffffffffffff168773ffffffffffffffffffffffffffffffffffffffff167fddf252ad1be2c89b69c2b068fc378daa952ba7f163c4a11628f55a4df523b3ef60405160405180910390a45b505050505050565b6000828152600c6020908152604080832081518083019092525473ffffffffffffffffffffffffffffffffffffffff8116808352740100000000000000000000000000000000000000009091046bffffffffffffffffffffffff16928201929092528291610f63575060408051808201909152600b5473ffffffffffffffffffffffffffffffffffffffff811682527401000000000000000000000000000000000000000090046bffffffffffffffffffffffff1660208201525b602081015160009061271090610f87906bffffffffffffffffffffffff16876132e1565b610f9191906132f8565b915196919550909350505050565b33321461100d576040517f08c379a000000000000000000000000000000000000000000000000000000000815260206004820152601a60248201527f7075626c69633a20626f74206973206e6f7420616c6c6f77656400000000000060448201526064015b60405180910390fd5b6002546001546113899190037fffffffffffffffffffffffffffffffffffffffffffffffffffffffffffffffff01106110a2576040517f08c379a000000000000000000000000000000000000000000000000000000000815260206004820152601760248201527f7075626c69633a20737570706c792065786365656465640000000000000000006044820152606401611004565b600b8110611132576040517f08c379a000000000000000000000000000000000000000000000000000000000815260206004820152602260248201527f7075626c69633a2063616e6e6f74206d696e746564206d6f7265207468616e2060448201527f31300000000000000000000000000000000000000000000000000000000000006064820152608401611004565b600f5460ff1661119e576040517f08c379a000000000000000000000000000000000000000000000000000000000815260206004820152601e60248201527f7075626c69633a206d696e74696e67206973206e6f7420656e61626c656400006044820152606401611004565b6111a6611e0d565b6111b090826132e1565b341015611219576040517f08c379a000000000000000000000000000000000000000000000000000000000815260206004820152601a60248201527f7075626c69633a20696e73756666696369656e742065746865720000000000006044820152606401611004565b6112233382612366565b61122b612380565b50565b611249838383604051806020016040528060008152506119e0565b505050565b6112566125c0565b6012611249828483613379565b61126b6125c0565b73ffffffffffffffffffffffffffffffffffffffff82166000908152600660205260409020805460c083901b77ffffffffffffffffffffffffffffffffffffffffffffffff9091161790555050565b5050565b6112c66125c0565b6112ba8282612366565b6112d86125c0565b6011611249828483613379565b60608160008167ffffffffffffffff811115611303576113036130b1565b60405190808252806020026020018201604052801561137357816020015b6040805160808101825260008082526020808301829052928201819052606082015282527fffffffffffffffffffffffffffffffffffffffffffffffffffffffffffffffff9092019101816113215790505b50905060005b8281146113c6576113a186868381811061139557611395613493565b90506020020135611a7e565b8282815181106113b3576113b3613493565b6020908102919091010152600101611379565b50949350505050565b6000610a2b826122a7565b600073ffffffffffffffffffffffffffffffffffffffff8216611429576040517f8f4eb60400000000000000000000000000000000000000000000000000000000815260040160405180910390fd5b5073ffffffffffffffffffffffffffffffffffffffff1660009081526006602052604090205467ffffffffffffffff1690565b6040517f08c379a000000000000000000000000000000000000000000000000000000000815260206004820152600f60248201527f63616e6e6f742072656e6f756e636500000000000000000000000000000000006044820152606401611004565b565b6114c86125c0565b601080547fffffffffffffffffffffffff00000000000000000000000000000000000000001673ffffffffffffffffffffffffffffffffffffffff92909216919091179055565b600a54339073ffffffffffffffffffffffffffffffffffffffff1681146115b8576040517f08c379a000000000000000000000000000000000000000000000000000000000815260206004820152602960248201527f4f776e61626c6532537465703a2063616c6c6572206973206e6f74207468652060448201527f6e6577206f776e657200000000000000000000000000000000000000000000006064820152608401611004565b61122b81612641565b606060008060006115d1856113da565b905060008167ffffffffffffffff8111156115ee576115ee6130b1565b604051908082528060200260200182016040528015611617578160200160208202803683370190505b5060408051608081018252600080825260208201819052918101829052606081019190915290915060015b8386146116e05761165281612672565b915081604001516116d857815173ffffffffffffffffffffffffffffffffffffffff161561167f57815194505b8773ffffffffffffffffffffffffffffffffffffffff168573ffffffffffffffffffffffffffffffffffffffff16036116d857808387806001019850815181106116cb576116cb613493565b6020026020010181815250505b600101611642565b50909695505050505050565b6116f46125c0565b600f80547fffffffffffffffffffffffffffffffffffffffffffffffffffffffffffffff00169055565b606060048054610a409061325f565b6060818310611768576040517f32c1995a00000000000000000000000000000000000000000000000000000000815260040160405180910390fd5b60008061177460015490565b9050600185101561178457600194505b80841115611790578093505b600061179b876113da565b9050848610156117ba57858503818110156117b4578091505b506117be565b5060005b60008167ffffffffffffffff8111156117d9576117d96130b1565b604051908082528060200260200182016040528015611802578160200160208202803683370190505b509050816000036118185793506118ee92505050565b600061182388611a7e565b905060008160400151611834575080515b885b8881141580156118465750848714155b156118e25761185481612672565b925082604001516118da57825173ffffffffffffffffffffffffffffffffffffffff161561188157825191505b8a73ffffffffffffffffffffffffffffffffffffffff168273ffffffffffffffffffffffffffffffffffffffff16036118da57808488806001019950815181106118cd576118cd613493565b6020026020010181815250505b600101611836565b50505092835250909150505b9392505050565b33600081815260086020908152604080832073ffffffffffffffffffffffffffffffffffffffff87168085529083529281902080547fffffffffffffffffffffffffffffffffffffffffffffffffffffffffffffff001686151590811790915590519081529192917f17307eab39ab6107e8899845ad3d59bd9653f200f220920489ca2b5937696c31910160405180910390a35050565b6119946125c0565b600f805473ffffffffffffffffffffffffffffffffffffffff909216610100027fffffffffffffffffffffff0000000000000000000000000000000000000000ff909216919091179055565b6119eb848484610c18565b73ffffffffffffffffffffffffffffffffffffffff83163b15611a4a57611a1484848484612717565b611a4a576040517fd1a57ed600000000000000000000000000000000000000000000000000000000815260040160405180910390fd5b50505050565b73ffffffffffffffffffffffffffffffffffffffff811660009081526006602052604081205460c01c610a2b565b6040805160808101825260008082526020820181905291810182905260608101919091526040805160808101825260008082526020820181905291810182905260608101919091526001831080611ad757506001548310155b15611ae25792915050565b611aeb83612672565b9050806040015115611afd5792915050565b6118ee83612890565b6060611b1182612259565b611b47576040517fa14c4b5000000000000000000000000000000000000000000000000000000000815260040160405180910390fd5b6000611b5161292e565b90508051600003611b7157604051806020016040528060008152506118ee565b80611b7b8461293d565b6012604051602001611b8f939291906134c2565b6040516020818303038152906040529392505050565b611bad6125c0565b6114be612380565b333214611c1e576040517f08c379a000000000000000000000000000000000000000000000000000000000815260206004820152601b60248201527f70726573616c653a20626f74206973206e6f7420616c6c6f77656400000000006044820152606401611004565b3360009081526006602052604090205460c01c811115611cc0576040517f08c379a000000000000000000000000000000000000000000000000000000000815260206004820152602860248201527f70726573616c653a2063616e6e6f74206d696e746564206d6f7265207468616e60448201527f20616c6c6f7765640000000000000000000000000000000000000000000000006064820152608401611004565b600f5460ff1615611d2d576040517f08c379a000000000000000000000000000000000000000000000000000000000815260206004820152601b60248201527f70726573616c653a206d696e74696e6720697320656e61626c656400000000006044820152606401611004565b611d35611e0d565b611d3f90826132e1565b341015611da8576040517f08c379a000000000000000000000000000000000000000000000000000000000815260206004820152601b60248201527f70726573616c653a20696e73756666696369656e7420657468657200000000006044820152606401611004565b611db23382612366565b33600090815260066020526040812054611dd090839060c01c613580565b336000908152600660205260409020805477ffffffffffffffffffffffffffffffffffffffffffffffff1660c083901b17905590506112ba612380565b60008060007f000000000000000000000000000000000000000000000000000000000000000073ffffffffffffffffffffffffffffffffffffffff1663feaf968c6040518163ffffffff1660e01b815260040160a060405180830381865afa158015611e7d573d6000803e3d6000fd5b505050506040513d601f19601f82011682018060405250810190611ea191906135c2565b5093505092505060008213611f38576040517f08c379a000000000000000000000000000000000000000000000000000000000815260206004820152602360248201527f466565642070726963652073686f756c6420626520677265617465722074686160448201527f6e203000000000000000000000000000000000000000000000000000000000006064820152608401611004565b611f44610e1042613612565b8111611fac576040517f08c379a000000000000000000000000000000000000000000000000000000000815260206004820152600b60248201527f5374616c652050726963650000000000000000000000000000000000000000006044820152606401611004565b6000827f000000000000000000000000000000000000000000000000000000000000000073ffffffffffffffffffffffffffffffffffffffff1663313ce5676040518163ffffffff1660e01b8152600401602060405180830381865afa15801561201a573d6000803e3d6000fd5b505050506040513d601f19601f8201168201806040525081019061203e9190613625565b6120539060ff16670de0b6b3a7640000613648565b67ffffffffffffffff1661206791906132f8565b905060007f000000000000000000000000000000000000000000000000000000000000000073ffffffffffffffffffffffffffffffffffffffff1663313ce5676040518163ffffffff1660e01b8152600401602060405180830381865afa1580156120d6573d6000803e3d6000fd5b505050506040513d601f19601f820116820180604052508101906120fa9190613625565b60ff1682600e5461210b91906132e1565b61211591906132f8565b95945050505050565b6121266125c0565b600a805473ffffffffffffffffffffffffffffffffffffffff83167fffffffffffffffffffffffff0000000000000000000000000000000000000000909116811790915561218960095473ffffffffffffffffffffffffffffffffffffffff1690565b73ffffffffffffffffffffffffffffffffffffffff167f38d16b8cac22d99fc7c124b9cd0de2d3fa1faef420bfe791d8c362d765e2270060405160405180910390a350565b6121d66125c0565b600f80547fffffffffffffffffffffffffffffffffffffffffffffffffffffffffffffff00166001179055565b60007fffffffff0000000000000000000000000000000000000000000000000000000082167f2a55205a000000000000000000000000000000000000000000000000000000001480610a2b5750610a2b8261299f565b60008160011115801561226d575060015482105b8015610a2b5750506000908152600560205260409020547c0100000000000000000000000000000000000000000000000000000000161590565b600081806001116123345760015481101561233457600081815260056020526040812054907c010000000000000000000000000000000000000000000000000000000082169003612332575b806000036118ee57507fffffffffffffffffffffffffffffffffffffffffffffffffffffffffffffffff016000818152600560205260409020546122f3565b505b6040517fdf2d9b4200000000000000000000000000000000000000000000000000000000815260040160405180910390fd5b6112ba828260405180602001604052806000815250612a80565b47806123e8576040517f08c379a000000000000000000000000000000000000000000000000000000000815260206004820152601660248201527f4e6f20457468657220746f2064697374726962757465000000000000000000006044820152606401611004565b6000600a6123f78360076132e1565b61240191906132f8565b90506000600a6124128460036132e1565b61241c91906132f8565b600f5460405191925060009161010090910473ffffffffffffffffffffffffffffffffffffffff169083908381818185875af1925050503d806000811461247f576040519150601f19603f3d011682016040523d82523d6000602084013e612484565b606091505b50509050806124ef576040517f08c379a000000000000000000000000000000000000000000000000000000000815260206004820152601a60248201527f5472616e7366657220746f204f4e434841494e206661696c65640000000000006044820152606401611004565b60105460405160009173ffffffffffffffffffffffffffffffffffffffff169085908381818185875af1925050503d8060008114612549576040519150601f19603f3d011682016040523d82523d6000602084013e61254e565b606091505b50509050806125b9576040517f08c379a000000000000000000000000000000000000000000000000000000000815260206004820152601b60248201527f5472616e7366657220746f204f4646434841494e206661696c656400000000006044820152606401611004565b5050505050565b60095473ffffffffffffffffffffffffffffffffffffffff1633146114be576040517f08c379a000000000000000000000000000000000000000000000000000000000815260206004820181905260248201527f4f776e61626c653a2063616c6c6572206973206e6f7420746865206f776e65726044820152606401611004565b600a80547fffffffffffffffffffffffff000000000000000000000000000000000000000016905561122b81612b0c565b604080516080810182526000808252602082018190529181018290526060810191909152600082815260056020526040902054610a2b906040805160808101825273ffffffffffffffffffffffffffffffffffffffff8316815260a083901c67ffffffffffffffff1660208201527c0100000000000000000000000000000000000000000000000000000000831615159181019190915260e89190911c606082015290565b6040517f150b7a0200000000000000000000000000000000000000000000000000000000815260009073ffffffffffffffffffffffffffffffffffffffff85169063150b7a0290612772903390899088908890600401613674565b6020604051808303816000875af19250505080156127cb575060408051601f3d9081017fffffffffffffffffffffffffffffffffffffffffffffffffffffffffffffffe01682019092526127c8918101906136bd565b60015b612842573d8080156127f9576040519150601f19603f3d011682016040523d82523d6000602084013e6127fe565b606091505b50805160000361283a576040517fd1a57ed600000000000000000000000000000000000000000000000000000000815260040160405180910390fd5b805181602001fd5b7fffffffff00000000000000000000000000000000000000000000000000000000167f150b7a0200000000000000000000000000000000000000000000000000000000149050949350505050565b604080516080810182526000808252602082018190529181018290526060810191909152610a2b6128c0836122a7565b6040805160808101825273ffffffffffffffffffffffffffffffffffffffff8316815260a083901c67ffffffffffffffff1660208201527c0100000000000000000000000000000000000000000000000000000000831615159181019190915260e89190911c606082015290565b606060118054610a409061325f565b606060a06040510180604052602081039150506000815280825b600183039250600a81066030018353600a90048061295757508190037fffffffffffffffffffffffffffffffffffffffffffffffffffffffffffffffe0909101908152919050565b60007f01ffc9a7000000000000000000000000000000000000000000000000000000007fffffffff0000000000000000000000000000000000000000000000000000000083161480612a3257507f80ac58cd000000000000000000000000000000000000000000000000000000007fffffffff000000000000000000000000000000000000000000000000000000008316145b80610a2b5750507fffffffff00000000000000000000000000000000000000000000000000000000167f5b5e139f000000000000000000000000000000000000000000000000000000001490565b612a8a8383612b83565b73ffffffffffffffffffffffffffffffffffffffff83163b15611249576001548281035b612ac16000868380600101945086612717565b612af7576040517fd1a57ed600000000000000000000000000000000000000000000000000000000815260040160405180910390fd5b818110612aae5781600154146125b957600080fd5b6009805473ffffffffffffffffffffffffffffffffffffffff8381167fffffffffffffffffffffffff0000000000000000000000000000000000000000831681179093556040519116919082907f8be0079c531659141344cd1fd0a4f28419497f9722a3daafe3b4186f6b6457e090600090a35050565b6001546000829003612bc1576040517fb562e8dd00000000000000000000000000000000000000000000000000000000815260040160405180910390fd5b73ffffffffffffffffffffffffffffffffffffffff831660008181526006602090815260408083208054680100000000000000018802019055848352600590915281206001851460e11b4260a01b178317905582840190839083907fddf252ad1be2c89b69c2b068fc378daa952ba7f163c4a11628f55a4df523b3ef8180a4600183015b818114612c7d57808360007fddf252ad1be2c89b69c2b068fc378daa952ba7f163c4a11628f55a4df523b3ef600080a4600101612c45565b5081600003612cb8576040517f2e07630000000000000000000000000000000000000000000000000000000000815260040160405180910390fd5b60015550505050565b7fffffffff000000000000000000000000000000000000000000000000000000008116811461122b57600080fd5b600060208284031215612d0157600080fd5b81356118ee81612cc1565b60005b83811015612d27578181015183820152602001612d0f565b50506000910152565b60008151808452612d48816020860160208601612d0c565b601f017fffffffffffffffffffffffffffffffffffffffffffffffffffffffffffffffe0169290920160200192915050565b6020815260006118ee6020830184612d30565b600060208284031215612d9f57600080fd5b5035919050565b803573ffffffffffffffffffffffffffffffffffffffff81168114612dca57600080fd5b919050565b60008060408385031215612de257600080fd5b612deb83612da6565b946020939093013593505050565b600080600060608486031215612e0e57600080fd5b612e1784612da6565b9250612e2560208501612da6565b9150604084013590509250925092565b60008060408385031215612e4857600080fd5b50508035926020909101359150565b60008060208385031215612e6a57600080fd5b823567ffffffffffffffff80821115612e8257600080fd5b818501915085601f830112612e9657600080fd5b813581811115612ea557600080fd5b866020828501011115612eb757600080fd5b60209290920196919550909350505050565b60008060408385031215612edc57600080fd5b612ee583612da6565b9150602083013567ffffffffffffffff81168114612f0257600080fd5b809150509250929050565b60008060208385031215612f2057600080fd5b823567ffffffffffffffff80821115612f3857600080fd5b818501915085601f830112612f4c57600080fd5b813581811115612f5b57600080fd5b8660208260051b8501011115612eb757600080fd5b6020808252825182820181905260009190848201906040850190845b818110156116e057612fe783855173ffffffffffffffffffffffffffffffffffffffff815116825267ffffffffffffffff602082015116602083015260408101511515604083015262ffffff60608201511660608301525050565b9284019260809290920191600101612f8c565b60006020828403121561300c57600080fd5b6118ee82612da6565b6020808252825182820181905260009190848201906040850190845b818110156116e057835183529284019291840191600101613031565b60008060006060848603121561306257600080fd5b61306b84612da6565b95602085013595506040909401359392505050565b6000806040838503121561309357600080fd5b61309c83612da6565b915060208301358015158114612f0257600080fd5b7f4e487b7100000000000000000000000000000000000000000000000000000000600052604160045260246000fd5b600080600080608085870312156130f657600080fd5b6130ff85612da6565b935061310d60208601612da6565b925060408501359150606085013567ffffffffffffffff8082111561313157600080fd5b818701915087601f83011261314557600080fd5b813581811115613157576131576130b1565b604051601f82017fffffffffffffffffffffffffffffffffffffffffffffffffffffffffffffffe0908116603f0116810190838211818310171561319d5761319d6130b1565b816040528281528a60208487010111156131b657600080fd5b82602086016020830137600060208483010152809550505050505092959194509250565b815173ffffffffffffffffffffffffffffffffffffffff16815260208083015167ffffffffffffffff169082015260408083015115159082015260608083015162ffffff169082015260808101610a2b565b6000806040838503121561323f57600080fd5b61324883612da6565b915061325660208401612da6565b90509250929050565b600181811c9082168061327357607f821691505b6020821081036132ac577f4e487b7100000000000000000000000000000000000000000000000000000000600052602260045260246000fd5b50919050565b7f4e487b7100000000000000000000000000000000000000000000000000000000600052601160045260246000fd5b8082028115828204841417610a2b57610a2b6132b2565b60008261332e577f4e487b7100000000000000000000000000000000000000000000000000000000600052601260045260246000fd5b500490565b601f82111561124957600081815260208120601f850160051c8101602086101561335a5750805b601f850160051c820191505b81811015610ea057828155600101613366565b67ffffffffffffffff831115613391576133916130b1565b6133a58361339f835461325f565b83613333565b6000601f8411600181146133f757600085156133c15750838201355b7fffffffffffffffffffffffffffffffffffffffffffffffffffffffffffffffff600387901b1c1916600186901b1783556125b9565b6000838152602090207fffffffffffffffffffffffffffffffffffffffffffffffffffffffffffffffe0861690835b828110156134465786850135825560209485019460019092019101613426565b5086821015613481577fffffffffffffffffffffffffffffffffffffffffffffffffffffffffffffffff60f88860031b161c19848701351681555b505060018560011b0183555050505050565b7f4e487b7100000000000000000000000000000000000000000000000000000000600052603260045260246000fd5b6000845160206134d58285838a01612d0c565b8551918401916134e88184848a01612d0c565b85549201916000906134f98161325f565b60018281168015613511576001811461354457613570565b7fffffffffffffffffffffffffffffffffffffffffffffffffffffffffffffff0084168752821515830287019450613570565b896000528560002060005b848110156135685781548982015290830190870161354f565b505082870194505b50929a9950505050505050505050565b67ffffffffffffffff8281168282160390808211156135a1576135a16132b2565b5092915050565b805169ffffffffffffffffffff81168114612dca57600080fd5b600080600080600060a086880312156135da57600080fd5b6135e3866135a8565b9450602086015193506040860151925060608601519150613606608087016135a8565b90509295509295909350565b81810381811115610a2b57610a2b6132b2565b60006020828403121561363757600080fd5b815160ff811681146118ee57600080fd5b67ffffffffffffffff81811683821602808216919082811461366c5761366c6132b2565b505092915050565b600073ffffffffffffffffffffffffffffffffffffffff8087168352808616602084015250836040830152608060608301526136b36080830184612d30565b9695505050505050565b6000602082840312156136cf57600080fd5b81516118ee81612cc156fea264697066735822122068c249e04fcabf9eeb1bda860889507d5d6b45fa6e560fb8b548de9b2281549c64736f6c63430008130033",
    "linkReferences": {}
  },
  "methodIdentifiers": {
    "_usdPrice()": "1a16aacd",
    "acceptOwnership()": "79ba5097",
    "approve(address,uint256)": "095ea7b3",
    "balanceOf(address)": "70a08231",
    "disablePublicMinting()": "9190ad47",
    "distribute()": "e4fc6b6d",
    "enablePublicMinting()": "f7beb98a",
    "explicitOwnershipOf(uint256)": "c23dc68f",
    "explicitOwnershipsOf(uint256[])": "5bbb2177",
    "getApproved(uint256)": "081812fc",
    "getAux(address)": "bf0b175e",
    "getCurrentPrice()": "eb91d37e",
    "isApprovedForAll(address,address)": "e985e9c5",
    "name()": "06fdde03",
    "offchain()": "0251acae",
    "onchain()": "acdae899",
    "owner()": "8da5cb5b",
    "ownerMint(address,uint256)": "484b973c",
    "ownerOf(uint256)": "6352211e",
    "pendingOwner()": "e30c3978",
    "presale(uint256)": "e6ab1434",
    "publicMint(uint256)": "2db11544",
    "publicMintingEnabled()": "8dec9f7a",
    "renounceOwnership()": "715018a6",
    "royaltyInfo(uint256,uint256)": "2a55205a",
    "safeTransferFrom(address,address,uint256)": "42842e0e",
    "safeTransferFrom(address,address,uint256,bytes)": "b88d4fde",
    "setApprovalForAll(address,bool)": "a22cb465",
    "setAux(address,uint64)": "453ab141",
    "setBaseURI(string)": "55f804b3",
    "setOffchainWallet(address)": "77fd08c5",
    "setOnchainWallet(address)": "a6b2c090",
    "setURIExtention(string)": "4408a046",
    "setUSDPrice(uint256)": "147d959a",
    "supportsInterface(bytes4)": "01ffc9a7",
    "symbol()": "95d89b41",
    "tokenURI(uint256)": "c87b56dd",
    "tokensOfOwner(address)": "8462151c",
    "tokensOfOwnerIn(address,uint256,uint256)": "99a2557a",
    "totalSupply()": "18160ddd",
    "transferFrom(address,address,uint256)": "23b872dd",
    "transferOwnership(address)": "f2fde38b"
  },
  "id": 39
}